{
  "_format": "hh-sol-artifact-1",
  "contractName": "Deployer",
  "sourceName": "contracts/Deployer.sol",
  "abi": [
    {
      "inputs": [],
      "stateMutability": "nonpayable",
      "type": "constructor"
    },
    {
      "anonymous": false,
      "inputs": [
        {
          "indexed": false,
          "internalType": "uint256",
          "name": "_contractId",
          "type": "uint256"
        },
        {
          "indexed": false,
          "internalType": "uint256",
          "name": "",
          "type": "uint256"
        },
        {
          "indexed": false,
          "internalType": "address",
          "name": "_contractAddress",
          "type": "address"
        }
      ],
      "name": "DeployedContract",
      "type": "event"
    },
    {
      "anonymous": false,
      "inputs": [
        {
          "indexed": false,
          "internalType": "uint256",
          "name": "_proposalId",
          "type": "uint256"
        },
        {
          "indexed": false,
          "internalType": "address",
          "name": "_lender",
          "type": "address"
        },
        {
          "indexed": false,
          "internalType": "uint256",
          "name": "_mortgageValue",
          "type": "uint256"
        },
        {
          "indexed": false,
          "internalType": "uint256",
          "name": "_interestRate",
          "type": "uint256"
        },
        {
          "indexed": false,
          "internalType": "uint256",
          "name": "_termLength",
          "type": "uint256"
        }
      ],
      "name": "NewProposal",
      "type": "event"
    },
    {
      "inputs": [
        {
          "internalType": "uint256",
          "name": "proposalId",
          "type": "uint256"
        }
      ],
      "name": "acceptProposal",
      "outputs": [],
      "stateMutability": "nonpayable",
      "type": "function"
    },
    {
      "inputs": [
        {
          "internalType": "uint256",
          "name": "",
          "type": "uint256"
        }
      ],
      "name": "contractAddresses",
      "outputs": [
        {
          "internalType": "address",
          "name": "",
          "type": "address"
        }
      ],
      "stateMutability": "view",
      "type": "function"
    },
    {
      "inputs": [
        {
          "internalType": "address",
          "name": "_borrower",
          "type": "address"
        },
        {
          "internalType": "uint256",
          "name": "_mortgageValue",
          "type": "uint256"
        },
        {
          "internalType": "uint256",
          "name": "_interestRate",
          "type": "uint256"
        },
        {
          "internalType": "uint256",
          "name": "_termLength",
          "type": "uint256"
        }
      ],
      "name": "createProposal",
      "outputs": [
        {
          "internalType": "uint256",
          "name": "",
          "type": "uint256"
        }
      ],
      "stateMutability": "nonpayable",
      "type": "function"
    },
    {
      "inputs": [
        {
          "internalType": "uint256",
          "name": "",
          "type": "uint256"
        }
      ],
      "name": "deployedContracts",
      "outputs": [
        {
          "internalType": "contract ReverseMortgage",
          "name": "",
          "type": "address"
        }
      ],
      "stateMutability": "view",
      "type": "function"
    },
    {
      "inputs": [],
      "name": "deployedContractsCount",
      "outputs": [
        {
          "internalType": "uint256",
          "name": "",
          "type": "uint256"
        }
      ],
      "stateMutability": "view",
      "type": "function"
    },
    {
      "inputs": [],
      "name": "owner",
      "outputs": [
        {
          "internalType": "address",
          "name": "",
          "type": "address"
        }
      ],
      "stateMutability": "view",
      "type": "function"
    },
    {
      "inputs": [
        {
          "internalType": "uint256",
          "name": "",
          "type": "uint256"
        }
      ],
      "name": "proposals",
      "outputs": [
        {
          "internalType": "address",
          "name": "lender",
          "type": "address"
        },
        {
          "internalType": "address",
          "name": "borrower",
          "type": "address"
        },
        {
          "internalType": "uint256",
          "name": "mortgageValue",
          "type": "uint256"
        },
        {
          "internalType": "uint256",
          "name": "interestRate",
          "type": "uint256"
        },
        {
          "internalType": "uint256",
          "name": "termLength",
          "type": "uint256"
        },
        {
          "internalType": "bool",
          "name": "accepted",
          "type": "bool"
        }
      ],
      "stateMutability": "view",
      "type": "function"
    },
    {
      "inputs": [],
      "name": "proposalsCount",
      "outputs": [
        {
          "internalType": "uint256",
          "name": "",
          "type": "uint256"
        }
      ],
      "stateMutability": "view",
      "type": "function"
    }
  ],
  "bytecode": "0x608060405234801561001057600080fd5b50336000806101000a81548173ffffffffffffffffffffffffffffffffffffffff021916908373ffffffffffffffffffffffffffffffffffffffff1602179055506118f5806100606000396000f3fe60806040523480156200001157600080fd5b5060043610620000945760003560e01c806360c5cc3a116200006357806360c5cc3a14620001625780638da5cb5b14620001825780639ad1ee1014620001a4578063e9065f3d14620001da5762000094565b8063013cf08b14620000995780630a9f46ad14620000d4578063274989f414620000f65780633263b545146200012c575b600080fd5b620000b76004803603810190620000b19190620008e5565b620001fc565b604051620000cb9695949392919062000a37565b60405180910390f35b620000de62000296565b604051620000ed919062000ae3565b60405180910390f35b6200011460048036038101906200010e919062000879565b6200029c565b60405162000123919062000ae3565b60405180910390f35b6200014a6004803603810190620001449190620008e5565b620004eb565b604051620001599190620009bd565b60405180910390f35b6200018060048036038101906200017a9190620008e5565b6200051e565b005b6200018c620007d3565b6040516200019b9190620009bd565b60405180910390f35b620001c26004803603810190620001bc9190620008e5565b620007f7565b604051620001d1919062000aa4565b60405180910390f35b620001e462000837565b604051620001f3919062000ae3565b60405180910390f35b600181815481106200020d57600080fd5b90600052602060002090600602016000915090508060000160009054906101000a900473ffffffffffffffffffffffffffffffffffffffff16908060010160009054906101000a900473ffffffffffffffffffffffffffffffffffffffff16908060020154908060030154908060040154908060050160009054906101000a900460ff16905086565b60025481565b60008473ffffffffffffffffffffffffffffffffffffffff163373ffffffffffffffffffffffffffffffffffffffff16141562000310576040517f08c379a0000000000000000000000000000000000000000000000000000000008152600401620003079062000ac1565b60405180910390fd5b60016040518060c001604052803373ffffffffffffffffffffffffffffffffffffffff1681526020018773ffffffffffffffffffffffffffffffffffffffff16815260200186815260200185815260200184815260200160001515815250908060018154018082558091505060019003906000526020600020906006020160009091909190915060008201518160000160006101000a81548173ffffffffffffffffffffffffffffffffffffffff021916908373ffffffffffffffffffffffffffffffffffffffff16021790555060208201518160010160006101000a81548173ffffffffffffffffffffffffffffffffffffffff021916908373ffffffffffffffffffffffffffffffffffffffff16021790555060408201518160020155606082015181600301556080820151816004015560a08201518160050160006101000a81548160ff0219169083151502179055505050600260008154809291906200047a9062000c58565b91905055507f8d29f89d00fad2c36af3aa26dfcc0f6a2b930a25c313608fa4c42dba010e208e6001600254620004b1919062000bab565b33868686604051620004c895949392919062000b00565b60405180910390a16001600254620004e1919062000bab565b9050949350505050565b60056020528060005260406000206000915054906101000a900473ffffffffffffffffffffffffffffffffffffffff1681565b6001818154811062000559577f4e487b7100000000000000000000000000000000000000000000000000000000600052603260045260246000fd5b906000526020600020906006020160010160009054906101000a900473ffffffffffffffffffffffffffffffffffffffff1673ffffffffffffffffffffffffffffffffffffffff163373ffffffffffffffffffffffffffffffffffffffff1614620005c357600080fd5b60006001828154811062000600577f4e487b7100000000000000000000000000000000000000000000000000000000600052603260045260246000fd5b9060005260206000209060060201905060008160000160009054906101000a900473ffffffffffffffffffffffffffffffffffffffff163383600201548460030154856004015460405162000655906200083d565b62000665959493929190620009da565b604051809103906000f08015801562000682573d6000803e3d6000fd5b5090506003819080600181540180825580915050600190039060005260206000200160009091909190916101000a81548173ffffffffffffffffffffffffffffffffffffffff021916908373ffffffffffffffffffffffffffffffffffffffff16021790555060046000815480929190620006fd9062000c58565b91905055508060056000600160045462000718919062000bab565b815260200190815260200160002060006101000a81548173ffffffffffffffffffffffffffffffffffffffff021916908373ffffffffffffffffffffffffffffffffffffffff1602179055507fd3969527c028be648adff9a740c8feae8935d8fc8508e2df8d1176698dfe5b7d600160045462000796919062000bab565b8483604051620007a99392919062000b5d565b60405180910390a160018260050160006101000a81548160ff021916908315150217905550505050565b60008054906101000a900473ffffffffffffffffffffffffffffffffffffffff1681565b600381815481106200080857600080fd5b906000526020600020016000915054906101000a900473ffffffffffffffffffffffffffffffffffffffff1681565b60045481565b610bb68062000d0a83390190565b6000813590506200085c8162000cd5565b92915050565b600081359050620008738162000cef565b92915050565b600080600080608085870312156200089057600080fd5b6000620008a0878288016200084b565b9450506020620008b38782880162000862565b9350506040620008c68782880162000862565b9250506060620008d98782880162000862565b91505092959194509250565b600060208284031215620008f857600080fd5b6000620009088482850162000862565b91505092915050565b6200091c8162000be6565b82525050565b6200092d8162000bfa565b82525050565b6200093e8162000c30565b82525050565b60006200095360278362000b9a565b91507f506c6561736520757365206120646966666572656e7420626f72726f7765722060008301527f61646472657373000000000000000000000000000000000000000000000000006020830152604082019050919050565b620009b78162000c26565b82525050565b6000602082019050620009d4600083018462000911565b92915050565b600060a082019050620009f1600083018862000911565b62000a00602083018762000911565b62000a0f6040830186620009ac565b62000a1e6060830185620009ac565b62000a2d6080830184620009ac565b9695505050505050565b600060c08201905062000a4e600083018962000911565b62000a5d602083018862000911565b62000a6c6040830187620009ac565b62000a7b6060830186620009ac565b62000a8a6080830185620009ac565b62000a9960a083018462000922565b979650505050505050565b600060208201905062000abb600083018462000933565b92915050565b6000602082019050818103600083015262000adc8162000944565b9050919050565b600060208201905062000afa6000830184620009ac565b92915050565b600060a08201905062000b176000830188620009ac565b62000b26602083018762000911565b62000b356040830186620009ac565b62000b446060830185620009ac565b62000b536080830184620009ac565b9695505050505050565b600060608201905062000b746000830186620009ac565b62000b836020830185620009ac565b62000b92604083018462000911565b949350505050565b600082825260208201905092915050565b600062000bb88262000c26565b915062000bc58362000c26565b92508282101562000bdb5762000bda62000ca6565b5b828203905092915050565b600062000bf38262000c06565b9050919050565b60008115159050919050565b600073ffffffffffffffffffffffffffffffffffffffff82169050919050565b6000819050919050565b600062000c3d8262000c44565b9050919050565b600062000c518262000c06565b9050919050565b600062000c658262000c26565b91507fffffffffffffffffffffffffffffffffffffffffffffffffffffffffffffffff82141562000c9b5762000c9a62000ca6565b5b600182019050919050565b7f4e487b7100000000000000000000000000000000000000000000000000000000600052601160045260246000fd5b62000ce08162000be6565b811462000cec57600080fd5b50565b62000cfa8162000c26565b811462000d0657600080fd5b5056fe60806040523480156200001157600080fd5b5060405162000bb638038062000bb683398181016040528101906200003791906200019e565b84600660006101000a81548173ffffffffffffffffffffffffffffffffffffffff021916908373ffffffffffffffffffffffffffffffffffffffff16021790555083600760006101000a81548173ffffffffffffffffffffffffffffffffffffffff021916908373ffffffffffffffffffffffffffffffffffffffff160217905550826000819055508160018190555080600281905550620000e46000546002546200010e60201b60201c565b600481905550620000fd6001546200014960201b60201c565b600581905550505050505062000389565b6000600c8284670de0b6b3a764000062000129919062000258565b62000135919062000220565b62000141919062000220565b905092915050565b6000600c6103e8836200015d919062000258565b62000169919062000220565b9050919050565b600081519050620001818162000355565b92915050565b60008151905062000198816200036f565b92915050565b600080600080600060a08688031215620001b757600080fd5b6000620001c78882890162000170565b9550506020620001da8882890162000170565b9450506040620001ed8882890162000187565b9350506060620002008882890162000187565b9250506080620002138882890162000187565b9150509295509295909350565b60006200022d82620002ed565b91506200023a83620002ed565b9250826200024d576200024c62000326565b5b828204905092915050565b60006200026582620002ed565b91506200027283620002ed565b9250817fffffffffffffffffffffffffffffffffffffffffffffffffffffffffffffffff0483118215151615620002ae57620002ad620002f7565b5b828202905092915050565b6000620002c682620002cd565b9050919050565b600073ffffffffffffffffffffffffffffffffffffffff82169050919050565b6000819050919050565b7f4e487b7100000000000000000000000000000000000000000000000000000000600052601160045260246000fd5b7f4e487b7100000000000000000000000000000000000000000000000000000000600052601260045260246000fd5b6200036081620002b9565b81146200036c57600080fd5b50565b6200037a81620002ed565b81146200038657600080fd5b50565b61081d80620003996000396000f3fe6080604052600436106100915760003560e01c806379b18cd11161005957806379b18cd11461012b5780637df1f1b914610156578063994bc5e3146101815780639c4ae733146101ac578063bcead63e146101d757610091565b80631a9703da146100965780631afbb7a4146100c15780631b9265b8146100ec578063324e1bcd146100f65780633ccfd60b14610121575b600080fd5b3480156100a257600080fd5b506100ab610202565b6040516100b891906105ce565b60405180910390f35b3480156100cd57600080fd5b506100d6610208565b6040516100e391906105ce565b60405180910390f35b6100f461020e565b005b34801561010257600080fd5b5061010b6102e2565b60405161011891906105ce565b60405180910390f35b6101296102e8565b005b34801561013757600080fd5b50610140610422565b60405161014d91906105ce565b60405180910390f35b34801561016257600080fd5b5061016b610428565b6040516101789190610573565b60405180910390f35b34801561018d57600080fd5b5061019661044e565b6040516101a391906105ce565b60405180910390f35b3480156101b857600080fd5b506101c1610454565b6040516101ce91906105ce565b60405180910390f35b3480156101e357600080fd5b506101ec61045a565b6040516101f99190610573565b60405180910390f35b60015481565b60035481565b6004543414610252576040517f08c379a00000000000000000000000000000000000000000000000000000000081526004016102499061058e565b60405180910390fd5b34600360008282546102649190610623565b92505081905550610279600354600554610480565b6003600082825461028a9190610623565b92505081905550600860008154809291906102a490610740565b91905055507fd73298c59e2f8823f5313441b46ced5bddf204a2d4d72bdd904a6d6785e51ae9426040516102d891906105ce565b60405180910390a1565b60045481565b600760009054906101000a900473ffffffffffffffffffffffffffffffffffffffff1673ffffffffffffffffffffffffffffffffffffffff163373ffffffffffffffffffffffffffffffffffffffff1614610378576040517f08c379a000000000000000000000000000000000000000000000000000000000815260040161036f906105ae565b60405180910390fd5b6000479050600760009054906101000a900473ffffffffffffffffffffffffffffffffffffffff1673ffffffffffffffffffffffffffffffffffffffff166108fc829081150290604051600060405180830381858888f193505050501580156103e5573d6000803e3d6000fd5b507fbf2ed60bd5b5965d685680c01195c9514e4382e28e3a5a2d2d5244bf59411b9381426040516104179291906105e9565b60405180910390a150565b60025481565b600760009054906101000a900473ffffffffffffffffffffffffffffffffffffffff1681565b60005481565b60085481565b600660009054906101000a900473ffffffffffffffffffffffffffffffffffffffff1681565b600060646103e8838561049391906106aa565b61049d9190610679565b6104a79190610679565b905092915050565b6104b881610704565b82525050565b60006104cb601783610612565b91507f496e636f7272656374207061796d656e742076616c75650000000000000000006000830152602082019050919050565b600061050b602883610612565b91507f4f6e6c792074686520626f72726f7765722063616e2063616c6c20746869732060008301527f66756e6374696f6e0000000000000000000000000000000000000000000000006020830152604082019050919050565b61056d81610736565b82525050565b600060208201905061058860008301846104af565b92915050565b600060208201905081810360008301526105a7816104be565b9050919050565b600060208201905081810360008301526105c7816104fe565b9050919050565b60006020820190506105e36000830184610564565b92915050565b60006040820190506105fe6000830185610564565b61060b6020830184610564565b9392505050565b600082825260208201905092915050565b600061062e82610736565b915061063983610736565b9250827fffffffffffffffffffffffffffffffffffffffffffffffffffffffffffffffff0382111561066e5761066d610789565b5b828201905092915050565b600061068482610736565b915061068f83610736565b92508261069f5761069e6107b8565b5b828204905092915050565b60006106b582610736565b91506106c083610736565b9250817fffffffffffffffffffffffffffffffffffffffffffffffffffffffffffffffff04831182151516156106f9576106f8610789565b5b828202905092915050565b600061070f82610716565b9050919050565b600073ffffffffffffffffffffffffffffffffffffffff82169050919050565b6000819050919050565b600061074b82610736565b91507fffffffffffffffffffffffffffffffffffffffffffffffffffffffffffffffff82141561077e5761077d610789565b5b600182019050919050565b7f4e487b7100000000000000000000000000000000000000000000000000000000600052601160045260246000fd5b7f4e487b7100000000000000000000000000000000000000000000000000000000600052601260045260246000fdfea264697066735822122014e8d4752ad6e25d6e35c3ab5dc1d04e53a3b45d9fdc665ba24cfd48ae10ac7764736f6c63430008000033a2646970667358221220be38bbffce01a1d2b02516587bcdacd159665709f4679f7260205957ed0d0b8264736f6c63430008000033",
  "linkReferences": {},
  "deployedLinkReferences": {}
}