{
    "_format": "hh-sol-artifact-1",
    "contractName": "Deployer",
    "sourceName": "contracts/Deployer.sol",
    "abi": [
        {
            "inputs": [],
            "stateMutability": "nonpayable",
            "type": "constructor"
        },
        {
            "anonymous": false,
            "inputs": [
                {
                    "indexed": false,
                    "internalType": "uint256",
                    "name": "_contractId",
                    "type": "uint256"
                },
                {
                    "indexed": false,
                    "internalType": "uint256",
                    "name": "",
                    "type": "uint256"
                },
                {
                    "indexed": false,
                    "internalType": "address",
                    "name": "_contractAddress",
                    "type": "address"
                }
            ],
            "name": "DeployedContract",
            "type": "event"
        },
        {
            "anonymous": false,
            "inputs": [
                {
                    "indexed": false,
                    "internalType": "uint256",
                    "name": "_proposalId",
                    "type": "uint256"
                },
                {
                    "indexed": false,
                    "internalType": "address",
                    "name": "_lender",
                    "type": "address"
                },
                {
                    "indexed": false,
                    "internalType": "uint256",
                    "name": "_mortgageValue",
                    "type": "uint256"
                },
                {
                    "indexed": false,
                    "internalType": "uint256",
                    "name": "_interestRate",
                    "type": "uint256"
                },
                {
                    "indexed": false,
                    "internalType": "uint256",
                    "name": "_termLength",
                    "type": "uint256"
                }
            ],
            "name": "NewProposal",
            "type": "event"
        },
        {
            "inputs": [
                {
                    "internalType": "uint256",
                    "name": "proposalId",
                    "type": "uint256"
                }
            ],
            "name": "acceptProposal",
            "outputs": [],
            "stateMutability": "nonpayable",
            "type": "function"
        },
        {
            "inputs": [
                {
                    "internalType": "address",
                    "name": "_borrower",
                    "type": "address"
                },
                {
                    "internalType": "uint256",
                    "name": "_mortgageValue",
                    "type": "uint256"
                },
                {
                    "internalType": "uint256",
                    "name": "_interestRate",
                    "type": "uint256"
                },
                {
                    "internalType": "uint256",
                    "name": "_termLength",
                    "type": "uint256"
                }
            ],
            "name": "createProposal",
            "outputs": [
                {
                    "internalType": "uint256",
                    "name": "",
                    "type": "uint256"
                }
            ],
            "stateMutability": "nonpayable",
            "type": "function"
        },
        {
            "inputs": [
                {
                    "internalType": "uint256",
                    "name": "",
                    "type": "uint256"
                }
            ],
            "name": "deployedContracts",
            "outputs": [
                {
                    "internalType": "contract ReverseMortgage",
                    "name": "",
                    "type": "address"
                }
            ],
            "stateMutability": "view",
            "type": "function"
        },
        {
            "inputs": [],
            "name": "deployedContractsCount",
            "outputs": [
                {
                    "internalType": "uint256",
                    "name": "",
                    "type": "uint256"
                }
            ],
            "stateMutability": "view",
            "type": "function"
        },
        {
            "inputs": [],
            "name": "owner",
            "outputs": [
                {
                    "internalType": "address",
                    "name": "",
                    "type": "address"
                }
            ],
            "stateMutability": "view",
            "type": "function"
        },
        {
            "inputs": [
                {
                    "internalType": "uint256",
                    "name": "",
                    "type": "uint256"
                }
            ],
            "name": "proposals",
            "outputs": [
                {
                    "internalType": "address",
                    "name": "lender",
                    "type": "address"
                },
                {
                    "internalType": "address",
                    "name": "borrower",
                    "type": "address"
                },
                {
                    "internalType": "uint256",
                    "name": "mortgageValue",
                    "type": "uint256"
                },
                {
                    "internalType": "uint256",
                    "name": "interestRate",
                    "type": "uint256"
                },
                {
                    "internalType": "uint256",
                    "name": "termLength",
                    "type": "uint256"
                },
                {
                    "internalType": "bool",
                    "name": "accepted",
                    "type": "bool"
                }
            ],
            "stateMutability": "view",
            "type": "function"
        },
        {
            "inputs": [],
            "name": "proposalsCount",
            "outputs": [
                {
                    "internalType": "uint256",
                    "name": "",
                    "type": "uint256"
                }
            ],
            "stateMutability": "view",
            "type": "function"
        }
    ],
    "bytecode": "0x608060405234801561001057600080fd5b50336000806101000a81548173ffffffffffffffffffffffffffffffffffffffff021916908373ffffffffffffffffffffffffffffffffffffffff16021790555061166e806100606000396000f3fe60806040523480156200001157600080fd5b5060043610620000885760003560e01c806360c5cc3a116200006357806360c5cc3a14620001205780638da5cb5b14620001405780639ad1ee101462000162578063e9065f3d14620001985762000088565b8063013cf08b146200008d5780630a9f46ad14620000c8578063274989f414620000ea575b600080fd5b620000ab6004803603810190620000a59190620007fe565b620001ba565b604051620000bf96959493929190620008e8565b60405180910390f35b620000d262000254565b604051620000e1919062000972565b60405180910390f35b62000108600480360381019062000102919062000792565b6200025a565b60405162000117919062000972565b60405180910390f35b6200013e6004803603810190620001389190620007fe565b62000437565b005b6200014a620006ec565b6040516200015991906200086e565b60405180910390f35b6200018060048036038101906200017a9190620007fe565b62000710565b6040516200018f919062000955565b60405180910390f35b620001a262000750565b604051620001b1919062000972565b60405180910390f35b60018181548110620001cb57600080fd5b90600052602060002090600602016000915090508060000160009054906101000a900473ffffffffffffffffffffffffffffffffffffffff16908060010160009054906101000a900473ffffffffffffffffffffffffffffffffffffffff16908060020154908060030154908060040154908060050160009054906101000a900460ff16905086565b60025481565b600060016040518060c001604052803373ffffffffffffffffffffffffffffffffffffffff1681526020018773ffffffffffffffffffffffffffffffffffffffff16815260200186815260200185815260200184815260200160001515815250908060018154018082558091505060019003906000526020600020906006020160009091909190915060008201518160000160006101000a81548173ffffffffffffffffffffffffffffffffffffffff021916908373ffffffffffffffffffffffffffffffffffffffff16021790555060208201518160010160006101000a81548173ffffffffffffffffffffffffffffffffffffffff021916908373ffffffffffffffffffffffffffffffffffffffff16021790555060408201518160020155606082015181600301556080820151816004015560a08201518160050160006101000a81548160ff021916908315150217905550505060026000815480929190620003c69062000ad6565b91905055507f8d29f89d00fad2c36af3aa26dfcc0f6a2b930a25c313608fa4c42dba010e208e6001600254620003fd919062000a29565b33868686604051620004149594939291906200098f565b60405180910390a160016002546200042d919062000a29565b9050949350505050565b6001818154811062000472577f4e487b7100000000000000000000000000000000000000000000000000000000600052603260045260246000fd5b906000526020600020906006020160010160009054906101000a900473ffffffffffffffffffffffffffffffffffffffff1673ffffffffffffffffffffffffffffffffffffffff163373ffffffffffffffffffffffffffffffffffffffff1614620004dc57600080fd5b60006001828154811062000519577f4e487b7100000000000000000000000000000000000000000000000000000000600052603260045260246000fd5b9060005260206000209060060201905060008160000160009054906101000a900473ffffffffffffffffffffffffffffffffffffffff16338360020154846003015485600401546040516200056e9062000756565b6200057e9594939291906200088b565b604051809103906000f0801580156200059b573d6000803e3d6000fd5b5090506003819080600181540180825580915050600190039060005260206000200160009091909190916101000a81548173ffffffffffffffffffffffffffffffffffffffff021916908373ffffffffffffffffffffffffffffffffffffffff16021790555060046000815480929190620006169062000ad6565b91905055508060056000600160045462000631919062000a29565b815260200190815260200160002060006101000a81548173ffffffffffffffffffffffffffffffffffffffff021916908373ffffffffffffffffffffffffffffffffffffffff1602179055507fd3969527c028be648adff9a740c8feae8935d8fc8508e2df8d1176698dfe5b7d6001600454620006af919062000a29565b8483604051620006c293929190620009ec565b60405180910390a160018260050160006101000a81548160ff021916908315150217905550505050565b60008054906101000a900473ffffffffffffffffffffffffffffffffffffffff1681565b600381815481106200072157600080fd5b906000526020600020016000915054906101000a900473ffffffffffffffffffffffffffffffffffffffff1681565b60045481565b610ab18062000b8883390190565b600081359050620007758162000b53565b92915050565b6000813590506200078c8162000b6d565b92915050565b60008060008060808587031215620007a957600080fd5b6000620007b98782880162000764565b9450506020620007cc878288016200077b565b9350506040620007df878288016200077b565b9250506060620007f2878288016200077b565b91505092959194509250565b6000602082840312156200081157600080fd5b600062000821848285016200077b565b91505092915050565b620008358162000a64565b82525050565b620008468162000a78565b82525050565b620008578162000aae565b82525050565b620008688162000aa4565b82525050565b60006020820190506200088560008301846200082a565b92915050565b600060a082019050620008a260008301886200082a565b620008b160208301876200082a565b620008c060408301866200085d565b620008cf60608301856200085d565b620008de60808301846200085d565b9695505050505050565b600060c082019050620008ff60008301896200082a565b6200090e60208301886200082a565b6200091d60408301876200085d565b6200092c60608301866200085d565b6200093b60808301856200085d565b6200094a60a08301846200083b565b979650505050505050565b60006020820190506200096c60008301846200084c565b92915050565b60006020820190506200098960008301846200085d565b92915050565b600060a082019050620009a660008301886200085d565b620009b560208301876200082a565b620009c460408301866200085d565b620009d360608301856200085d565b620009e260808301846200085d565b9695505050505050565b600060608201905062000a0360008301866200085d565b62000a1260208301856200085d565b62000a2160408301846200082a565b949350505050565b600062000a368262000aa4565b915062000a438362000aa4565b92508282101562000a595762000a5862000b24565b5b828203905092915050565b600062000a718262000a84565b9050919050565b60008115159050919050565b600073ffffffffffffffffffffffffffffffffffffffff82169050919050565b6000819050919050565b600062000abb8262000ac2565b9050919050565b600062000acf8262000a84565b9050919050565b600062000ae38262000aa4565b91507fffffffffffffffffffffffffffffffffffffffffffffffffffffffffffffffff82141562000b195762000b1862000b24565b5b600182019050919050565b7f4e487b7100000000000000000000000000000000000000000000000000000000600052601160045260246000fd5b62000b5e8162000a64565b811462000b6a57600080fd5b50565b62000b788162000aa4565b811462000b8457600080fd5b5056fe60806040523480156200001157600080fd5b5060405162000ab138038062000ab183398181016040528101906200003791906200019e565b84600660006101000a81548173ffffffffffffffffffffffffffffffffffffffff021916908373ffffffffffffffffffffffffffffffffffffffff16021790555083600760006101000a81548173ffffffffffffffffffffffffffffffffffffffff021916908373ffffffffffffffffffffffffffffffffffffffff160217905550826000819055508160018190555080600281905550620000e46000546002546200010e60201b60201c565b600481905550620000fd6001546200014960201b60201c565b600581905550505050505062000389565b6000600c8284670de0b6b3a764000062000129919062000258565b62000135919062000220565b62000141919062000220565b905092915050565b6000600c6103e8836200015d919062000258565b62000169919062000220565b9050919050565b600081519050620001818162000355565b92915050565b60008151905062000198816200036f565b92915050565b600080600080600060a08688031215620001b757600080fd5b6000620001c78882890162000170565b9550506020620001da8882890162000170565b9450506040620001ed8882890162000187565b9350506060620002008882890162000187565b9250506080620002138882890162000187565b9150509295509295909350565b60006200022d82620002ed565b91506200023a83620002ed565b9250826200024d576200024c62000326565b5b828204905092915050565b60006200026582620002ed565b91506200027283620002ed565b9250817fffffffffffffffffffffffffffffffffffffffffffffffffffffffffffffffff0483118215151615620002ae57620002ad620002f7565b5b828202905092915050565b6000620002c682620002cd565b9050919050565b600073ffffffffffffffffffffffffffffffffffffffff82169050919050565b6000819050919050565b7f4e487b7100000000000000000000000000000000000000000000000000000000600052601160045260246000fd5b7f4e487b7100000000000000000000000000000000000000000000000000000000600052601260045260246000fd5b6200036081620002b9565b81146200036c57600080fd5b50565b6200037a81620002ed565b81146200038657600080fd5b50565b61071880620003996000396000f3fe6080604052600436106100865760003560e01c80633ccfd60b116100595780633ccfd60b1461011657806379b18cd1146101205780637df1f1b91461014b578063994bc5e314610176578063bcead63e146101a157610086565b80631a9703da1461008b5780631afbb7a4146100b65780631b9265b8146100e1578063324e1bcd146100eb575b600080fd5b34801561009757600080fd5b506100a06101cc565b6040516100ad919061053b565b60405180910390f35b3480156100c257600080fd5b506100cb6101d2565b6040516100d8919061053b565b60405180910390f35b6100e96101d8565b005b3480156100f757600080fd5b50610100610294565b60405161010d919061053b565b60405180910390f35b61011e61029a565b005b34801561012c57600080fd5b50610135610395565b604051610142919061053b565b60405180910390f35b34801561015757600080fd5b5061016061039b565b60405161016d91906104e0565b60405180910390f35b34801561018257600080fd5b5061018b6103c1565b604051610198919061053b565b60405180910390f35b3480156101ad57600080fd5b506101b66103c7565b6040516101c391906104e0565b60405180910390f35b60015481565b60035481565b600454341461021c576040517f08c379a0000000000000000000000000000000000000000000000000000000008152600401610213906104fb565b60405180910390fd5b346003600082825461022e9190610567565b925050819055506102436003546005546103ed565b600360008282546102549190610567565b925050819055507fd73298c59e2f8823f5313441b46ced5bddf204a2d4d72bdd904a6d6785e51ae94260405161028a919061053b565b60405180910390a1565b60045481565b600760009054906101000a900473ffffffffffffffffffffffffffffffffffffffff1673ffffffffffffffffffffffffffffffffffffffff163373ffffffffffffffffffffffffffffffffffffffff161461032a576040517f08c379a00000000000000000000000000000000000000000000000000000000081526004016103219061051b565b60405180910390fd5b600760009054906101000a900473ffffffffffffffffffffffffffffffffffffffff1673ffffffffffffffffffffffffffffffffffffffff166108fc479081150290604051600060405180830381858888f19350505050158015610392573d6000803e3d6000fd5b50565b60025481565b600760009054906101000a900473ffffffffffffffffffffffffffffffffffffffff1681565b60005481565b600660009054906101000a900473ffffffffffffffffffffffffffffffffffffffff1681565b600060646103e8838561040091906105ee565b61040a91906105bd565b61041491906105bd565b905092915050565b61042581610648565b82525050565b6000610438601783610556565b91507f496e636f7272656374207061796d656e742076616c75650000000000000000006000830152602082019050919050565b6000610478602883610556565b91507f4f6e6c792074686520626f72726f7765722063616e2063616c6c20746869732060008301527f66756e6374696f6e0000000000000000000000000000000000000000000000006020830152604082019050919050565b6104da8161067a565b82525050565b60006020820190506104f5600083018461041c565b92915050565b600060208201905081810360008301526105148161042b565b9050919050565b600060208201905081810360008301526105348161046b565b9050919050565b600060208201905061055060008301846104d1565b92915050565b600082825260208201905092915050565b60006105728261067a565b915061057d8361067a565b9250827fffffffffffffffffffffffffffffffffffffffffffffffffffffffffffffffff038211156105b2576105b1610684565b5b828201905092915050565b60006105c88261067a565b91506105d38361067a565b9250826105e3576105e26106b3565b5b828204905092915050565b60006105f98261067a565b91506106048361067a565b9250817fffffffffffffffffffffffffffffffffffffffffffffffffffffffffffffffff048311821515161561063d5761063c610684565b5b828202905092915050565b60006106538261065a565b9050919050565b600073ffffffffffffffffffffffffffffffffffffffff82169050919050565b6000819050919050565b7f4e487b7100000000000000000000000000000000000000000000000000000000600052601160045260246000fd5b7f4e487b7100000000000000000000000000000000000000000000000000000000600052601260045260246000fdfea26469706673582212205cac065e3866713d17f11861f22016f6a913c0971c283f2e82166c402e19522d64736f6c63430008000033a264697066735822122007a0ab061ccee74b8621b08e35c73b76a1ca71ece97a36c27deb4e5df0169a0e64736f6c63430008000033",
    "linkReferences": {},
    "deployedLinkReferences": {}
}