{
  "_format": "hh-sol-artifact-1",
  "contractName": "ReverseMortgage",
  "sourceName": "contracts/ReverseMortgage.sol",
  "abi": [
    {
      "inputs": [
        {
          "internalType": "address",
          "name": "_lender",
          "type": "address"
        },
        {
          "internalType": "address",
          "name": "_borrower",
          "type": "address"
        },
        {
          "internalType": "uint256",
          "name": "_mortgageValue",
          "type": "uint256"
        },
        {
          "internalType": "uint256",
          "name": "_annualInterestRate",
          "type": "uint256"
        },
        {
          "internalType": "uint256",
          "name": "_termLength",
          "type": "uint256"
        }
      ],
      "stateMutability": "nonpayable",
      "type": "constructor"
    },
    {
      "anonymous": false,
      "inputs": [
        {
          "indexed": false,
          "internalType": "uint256",
          "name": "timestamp",
          "type": "uint256"
        }
      ],
      "name": "Payment",
      "type": "event"
    },
    {
      "anonymous": false,
      "inputs": [
        {
          "indexed": false,
          "internalType": "uint256",
          "name": "amount",
          "type": "uint256"
        },
        {
          "indexed": false,
          "internalType": "uint256",
          "name": "timestamp",
          "type": "uint256"
        }
      ],
      "name": "Withdrawal",
      "type": "event"
    },
    {
      "inputs": [],
      "name": "annualInterestRate",
      "outputs": [
        {
          "internalType": "uint256",
          "name": "",
          "type": "uint256"
        }
      ],
      "stateMutability": "view",
      "type": "function"
    },
    {
      "inputs": [],
      "name": "borrowedAmount",
      "outputs": [
        {
          "internalType": "uint256",
          "name": "",
          "type": "uint256"
        }
      ],
      "stateMutability": "view",
      "type": "function"
    },
    {
      "inputs": [],
      "name": "borrower",
      "outputs": [
        {
          "internalType": "address",
          "name": "",
          "type": "address"
        }
      ],
      "stateMutability": "view",
      "type": "function"
    },
    {
      "inputs": [],
      "name": "lender",
      "outputs": [
        {
          "internalType": "address",
          "name": "",
          "type": "address"
        }
      ],
      "stateMutability": "view",
      "type": "function"
    },
    {
      "inputs": [],
      "name": "monthlyPaymentValue",
      "outputs": [
        {
          "internalType": "uint256",
          "name": "",
          "type": "uint256"
        }
      ],
      "stateMutability": "view",
      "type": "function"
    },
    {
      "inputs": [],
      "name": "mortgageValue",
      "outputs": [
        {
          "internalType": "uint256",
          "name": "",
          "type": "uint256"
        }
      ],
      "stateMutability": "view",
      "type": "function"
    },
    {
      "inputs": [],
      "name": "pay",
      "outputs": [],
      "stateMutability": "payable",
      "type": "function"
    },
    {
      "inputs": [],
      "name": "termLength",
      "outputs": [
        {
          "internalType": "uint256",
          "name": "",
          "type": "uint256"
        }
      ],
      "stateMutability": "view",
      "type": "function"
    }
  ],
  "bytecode": "0x60806040523480156200001157600080fd5b506040516200091b3803806200091b83398181016040528101906200003791906200019e565b84600660006101000a81548173ffffffffffffffffffffffffffffffffffffffff021916908373ffffffffffffffffffffffffffffffffffffffff16021790555083600760006101000a81548173ffffffffffffffffffffffffffffffffffffffff021916908373ffffffffffffffffffffffffffffffffffffffff160217905550826000819055508160018190555080600281905550620000e46000546002546200010e60201b60201c565b600481905550620000fd6001546200014960201b60201c565b600581905550505050505062000389565b6000600c8284670de0b6b3a764000062000129919062000258565b62000135919062000220565b62000141919062000220565b905092915050565b6000600c6103e8836200015d919062000258565b62000169919062000220565b9050919050565b600081519050620001818162000355565b92915050565b60008151905062000198816200036f565b92915050565b600080600080600060a08688031215620001b757600080fd5b6000620001c78882890162000170565b9550506020620001da8882890162000170565b9450506040620001ed8882890162000187565b9350506060620002008882890162000187565b9250506080620002138882890162000187565b9150509295509295909350565b60006200022d82620002ed565b91506200023a83620002ed565b9250826200024d576200024c62000326565b5b828204905092915050565b60006200026582620002ed565b91506200027283620002ed565b9250817fffffffffffffffffffffffffffffffffffffffffffffffffffffffffffffffff0483118215151615620002ae57620002ad620002f7565b5b828202905092915050565b6000620002c682620002cd565b9050919050565b600073ffffffffffffffffffffffffffffffffffffffff82169050919050565b6000819050919050565b7f4e487b7100000000000000000000000000000000000000000000000000000000600052601160045260246000fd5b7f4e487b7100000000000000000000000000000000000000000000000000000000600052601260045260246000fd5b6200036081620002b9565b81146200036c57600080fd5b50565b6200037a81620002ed565b81146200038657600080fd5b50565b61058280620003996000396000f3fe60806040526004361061007b5760003560e01c806379b18cd11161004e57806379b18cd11461010b5780637df1f1b914610136578063994bc5e314610161578063bcead63e1461018c5761007b565b80631a9703da146100805780631afbb7a4146100ab5780631b9265b8146100d6578063324e1bcd146100e0575b600080fd5b34801561008c57600080fd5b506100956101b7565b6040516100a291906103a5565b60405180910390f35b3480156100b757600080fd5b506100c06101bd565b6040516100cd91906103a5565b60405180910390f35b6100de6101c3565b005b3480156100ec57600080fd5b506100f561027f565b60405161010291906103a5565b60405180910390f35b34801561011757600080fd5b50610120610285565b60405161012d91906103a5565b60405180910390f35b34801561014257600080fd5b5061014b61028b565b604051610158919061036a565b60405180910390f35b34801561016d57600080fd5b506101766102b1565b60405161018391906103a5565b60405180910390f35b34801561019857600080fd5b506101a16102b7565b6040516101ae919061036a565b60405180910390f35b60015481565b60035481565b6004543414610207576040517f08c379a00000000000000000000000000000000000000000000000000000000081526004016101fe90610385565b60405180910390fd5b346003600082825461021991906103d1565b9250508190555061022e6003546005546102dd565b6003600082825461023f91906103d1565b925050819055507fd73298c59e2f8823f5313441b46ced5bddf204a2d4d72bdd904a6d6785e51ae94260405161027591906103a5565b60405180910390a1565b60045481565b60025481565b600760009054906101000a900473ffffffffffffffffffffffffffffffffffffffff1681565b60005481565b600660009054906101000a900473ffffffffffffffffffffffffffffffffffffffff1681565b600060646103e883856102f09190610458565b6102fa9190610427565b6103049190610427565b905092915050565b610315816104b2565b82525050565b60006103286017836103c0565b91507f496e636f7272656374207061796d656e742076616c75650000000000000000006000830152602082019050919050565b610364816104e4565b82525050565b600060208201905061037f600083018461030c565b92915050565b6000602082019050818103600083015261039e8161031b565b9050919050565b60006020820190506103ba600083018461035b565b92915050565b600082825260208201905092915050565b60006103dc826104e4565b91506103e7836104e4565b9250827fffffffffffffffffffffffffffffffffffffffffffffffffffffffffffffffff0382111561041c5761041b6104ee565b5b828201905092915050565b6000610432826104e4565b915061043d836104e4565b92508261044d5761044c61051d565b5b828204905092915050565b6000610463826104e4565b915061046e836104e4565b9250817fffffffffffffffffffffffffffffffffffffffffffffffffffffffffffffffff04831182151516156104a7576104a66104ee565b5b828202905092915050565b60006104bd826104c4565b9050919050565b600073ffffffffffffffffffffffffffffffffffffffff82169050919050565b6000819050919050565b7f4e487b7100000000000000000000000000000000000000000000000000000000600052601160045260246000fd5b7f4e487b7100000000000000000000000000000000000000000000000000000000600052601260045260246000fdfea26469706673582212204d34cb5cfcadd4fa399f5f2bd7b0e348df4bf1d9b87fd6978566284c9cb4fdb364736f6c63430008000033",
  "linkReferences": {},
  "deployedLinkReferences": {}
}