{
  "_format": "hh-sol-artifact-1",
  "contractName": "ReverseMortgage",
  "sourceName": "contracts/ReverseMortgage.sol",
  "abi": [
    {
      "inputs": [
        {
          "internalType": "address",
          "name": "_lender",
          "type": "address"
        },
        {
          "internalType": "address",
          "name": "_borrower",
          "type": "address"
        },
        {
          "internalType": "uint256",
          "name": "_mortgageValue",
          "type": "uint256"
        },
        {
          "internalType": "uint256",
          "name": "_annualInterestRate",
          "type": "uint256"
        },
        {
          "internalType": "uint256",
          "name": "_termLength",
          "type": "uint256"
        }
      ],
      "stateMutability": "nonpayable",
      "type": "constructor"
    },
    {
      "anonymous": false,
      "inputs": [
        {
          "indexed": false,
          "internalType": "uint256",
          "name": "timestamp",
          "type": "uint256"
        }
      ],
      "name": "Payment",
      "type": "event"
    },
    {
      "anonymous": false,
      "inputs": [
        {
          "indexed": false,
          "internalType": "uint256",
          "name": "amount",
          "type": "uint256"
        },
        {
          "indexed": false,
          "internalType": "uint256",
          "name": "timestamp",
          "type": "uint256"
        }
      ],
      "name": "Withdrawal",
      "type": "event"
    },
    {
      "inputs": [],
      "name": "annualInterestRate",
      "outputs": [
        {
          "internalType": "uint256",
          "name": "",
          "type": "uint256"
        }
      ],
      "stateMutability": "view",
      "type": "function"
    },
    {
      "inputs": [],
      "name": "borrowedAmount",
      "outputs": [
        {
          "internalType": "uint256",
          "name": "",
          "type": "uint256"
        }
      ],
      "stateMutability": "view",
      "type": "function"
    },
    {
      "inputs": [],
      "name": "borrower",
      "outputs": [
        {
          "internalType": "address",
          "name": "",
          "type": "address"
        }
      ],
      "stateMutability": "view",
      "type": "function"
    },
    {
      "inputs": [],
      "name": "lender",
      "outputs": [
        {
          "internalType": "address",
          "name": "",
          "type": "address"
        }
      ],
      "stateMutability": "view",
      "type": "function"
    },
    {
      "inputs": [],
      "name": "monthlyPaymentValue",
      "outputs": [
        {
          "internalType": "uint256",
          "name": "",
          "type": "uint256"
        }
      ],
      "stateMutability": "view",
      "type": "function"
    },
    {
      "inputs": [],
      "name": "monthsPassed",
      "outputs": [
        {
          "internalType": "uint256",
          "name": "",
          "type": "uint256"
        }
      ],
      "stateMutability": "view",
      "type": "function"
    },
    {
      "inputs": [],
      "name": "mortgageValue",
      "outputs": [
        {
          "internalType": "uint256",
          "name": "",
          "type": "uint256"
        }
      ],
      "stateMutability": "view",
      "type": "function"
    },
    {
      "inputs": [],
      "name": "pay",
      "outputs": [],
      "stateMutability": "payable",
      "type": "function"
    },
    {
      "inputs": [],
      "name": "termLength",
      "outputs": [
        {
          "internalType": "uint256",
          "name": "",
          "type": "uint256"
        }
      ],
      "stateMutability": "view",
      "type": "function"
    },
    {
      "inputs": [],
      "name": "withdraw",
      "outputs": [],
      "stateMutability": "payable",
      "type": "function"
    }
  ],
  "bytecode": "0x60806040523480156200001157600080fd5b5060405162000bb638038062000bb683398181016040528101906200003791906200019e565b84600660006101000a81548173ffffffffffffffffffffffffffffffffffffffff021916908373ffffffffffffffffffffffffffffffffffffffff16021790555083600760006101000a81548173ffffffffffffffffffffffffffffffffffffffff021916908373ffffffffffffffffffffffffffffffffffffffff160217905550826000819055508160018190555080600281905550620000e46000546002546200010e60201b60201c565b600481905550620000fd6001546200014960201b60201c565b600581905550505050505062000389565b6000600c8284670de0b6b3a764000062000129919062000258565b62000135919062000220565b62000141919062000220565b905092915050565b6000600c6103e8836200015d919062000258565b62000169919062000220565b9050919050565b600081519050620001818162000355565b92915050565b60008151905062000198816200036f565b92915050565b600080600080600060a08688031215620001b757600080fd5b6000620001c78882890162000170565b9550506020620001da8882890162000170565b9450506040620001ed8882890162000187565b9350506060620002008882890162000187565b9250506080620002138882890162000187565b9150509295509295909350565b60006200022d82620002ed565b91506200023a83620002ed565b9250826200024d576200024c62000326565b5b828204905092915050565b60006200026582620002ed565b91506200027283620002ed565b9250817fffffffffffffffffffffffffffffffffffffffffffffffffffffffffffffffff0483118215151615620002ae57620002ad620002f7565b5b828202905092915050565b6000620002c682620002cd565b9050919050565b600073ffffffffffffffffffffffffffffffffffffffff82169050919050565b6000819050919050565b7f4e487b7100000000000000000000000000000000000000000000000000000000600052601160045260246000fd5b7f4e487b7100000000000000000000000000000000000000000000000000000000600052601260045260246000fd5b6200036081620002b9565b81146200036c57600080fd5b50565b6200037a81620002ed565b81146200038657600080fd5b50565b61081d80620003996000396000f3fe6080604052600436106100915760003560e01c806379b18cd11161005957806379b18cd11461012b5780637df1f1b914610156578063994bc5e3146101815780639c4ae733146101ac578063bcead63e146101d757610091565b80631a9703da146100965780631afbb7a4146100c15780631b9265b8146100ec578063324e1bcd146100f65780633ccfd60b14610121575b600080fd5b3480156100a257600080fd5b506100ab610202565b6040516100b891906105ce565b60405180910390f35b3480156100cd57600080fd5b506100d6610208565b6040516100e391906105ce565b60405180910390f35b6100f461020e565b005b34801561010257600080fd5b5061010b6102e2565b60405161011891906105ce565b60405180910390f35b6101296102e8565b005b34801561013757600080fd5b50610140610422565b60405161014d91906105ce565b60405180910390f35b34801561016257600080fd5b5061016b610428565b6040516101789190610573565b60405180910390f35b34801561018d57600080fd5b5061019661044e565b6040516101a391906105ce565b60405180910390f35b3480156101b857600080fd5b506101c1610454565b6040516101ce91906105ce565b60405180910390f35b3480156101e357600080fd5b506101ec61045a565b6040516101f99190610573565b60405180910390f35b60015481565b60035481565b6004543414610252576040517f08c379a00000000000000000000000000000000000000000000000000000000081526004016102499061058e565b60405180910390fd5b34600360008282546102649190610623565b92505081905550610279600354600554610480565b6003600082825461028a9190610623565b92505081905550600860008154809291906102a490610740565b91905055507fd73298c59e2f8823f5313441b46ced5bddf204a2d4d72bdd904a6d6785e51ae9426040516102d891906105ce565b60405180910390a1565b60045481565b600760009054906101000a900473ffffffffffffffffffffffffffffffffffffffff1673ffffffffffffffffffffffffffffffffffffffff163373ffffffffffffffffffffffffffffffffffffffff1614610378576040517f08c379a000000000000000000000000000000000000000000000000000000000815260040161036f906105ae565b60405180910390fd5b6000479050600760009054906101000a900473ffffffffffffffffffffffffffffffffffffffff1673ffffffffffffffffffffffffffffffffffffffff166108fc829081150290604051600060405180830381858888f193505050501580156103e5573d6000803e3d6000fd5b507fbf2ed60bd5b5965d685680c01195c9514e4382e28e3a5a2d2d5244bf59411b9381426040516104179291906105e9565b60405180910390a150565b60025481565b600760009054906101000a900473ffffffffffffffffffffffffffffffffffffffff1681565b60005481565b60085481565b600660009054906101000a900473ffffffffffffffffffffffffffffffffffffffff1681565b600060646103e8838561049391906106aa565b61049d9190610679565b6104a79190610679565b905092915050565b6104b881610704565b82525050565b60006104cb601783610612565b91507f496e636f7272656374207061796d656e742076616c75650000000000000000006000830152602082019050919050565b600061050b602883610612565b91507f4f6e6c792074686520626f72726f7765722063616e2063616c6c20746869732060008301527f66756e6374696f6e0000000000000000000000000000000000000000000000006020830152604082019050919050565b61056d81610736565b82525050565b600060208201905061058860008301846104af565b92915050565b600060208201905081810360008301526105a7816104be565b9050919050565b600060208201905081810360008301526105c7816104fe565b9050919050565b60006020820190506105e36000830184610564565b92915050565b60006040820190506105fe6000830185610564565b61060b6020830184610564565b9392505050565b600082825260208201905092915050565b600061062e82610736565b915061063983610736565b9250827fffffffffffffffffffffffffffffffffffffffffffffffffffffffffffffffff0382111561066e5761066d610789565b5b828201905092915050565b600061068482610736565b915061068f83610736565b92508261069f5761069e6107b8565b5b828204905092915050565b60006106b582610736565b91506106c083610736565b9250817fffffffffffffffffffffffffffffffffffffffffffffffffffffffffffffffff04831182151516156106f9576106f8610789565b5b828202905092915050565b600061070f82610716565b9050919050565b600073ffffffffffffffffffffffffffffffffffffffff82169050919050565b6000819050919050565b600061074b82610736565b91507fffffffffffffffffffffffffffffffffffffffffffffffffffffffffffffffff82141561077e5761077d610789565b5b600182019050919050565b7f4e487b7100000000000000000000000000000000000000000000000000000000600052601160045260246000fd5b7f4e487b7100000000000000000000000000000000000000000000000000000000600052601260045260246000fdfea264697066735822122014e8d4752ad6e25d6e35c3ab5dc1d04e53a3b45d9fdc665ba24cfd48ae10ac7764736f6c63430008000033",
  "linkReferences": {},
  "deployedLinkReferences": {}
}